{
  "contractName": "DMessage",
  "abi": [
    {
      "anonymous": false,
      "inputs": [
        {
          "indexed": false,
          "internalType": "uint256",
          "name": "id",
          "type": "uint256"
        },
        {
          "indexed": true,
          "internalType": "address",
          "name": "sender",
          "type": "address"
        },
        {
          "indexed": false,
          "internalType": "string",
          "name": "message",
          "type": "string"
        },
        {
          "indexed": false,
          "internalType": "uint256",
          "name": "time",
          "type": "uint256"
        }
      ],
      "name": "MessageSent",
      "type": "event"
    },
    {
      "inputs": [],
      "name": "messageCount",
      "outputs": [
        {
          "internalType": "uint256",
          "name": "",
          "type": "uint256"
        }
      ],
      "stateMutability": "view",
      "type": "function"
    },
    {
      "inputs": [],
      "name": "name",
      "outputs": [
        {
          "internalType": "string",
          "name": "",
          "type": "string"
        }
      ],
      "stateMutability": "view",
      "type": "function"
    },
    {
      "inputs": [
        {
          "internalType": "string",
          "name": "_message",
          "type": "string"
        }
      ],
      "name": "sendMessage",
      "outputs": [],
      "stateMutability": "nonpayable",
      "type": "function"
    },
    {
      "inputs": [
        {
          "internalType": "uint256",
          "name": "_id",
          "type": "uint256"
        }
      ],
      "name": "getMessage",
      "outputs": [
        {
          "components": [
            {
              "internalType": "uint256",
              "name": "id",
              "type": "uint256"
            },
            {
              "internalType": "address",
              "name": "sender",
              "type": "address"
            },
            {
              "internalType": "string",
              "name": "message",
              "type": "string"
            },
            {
              "internalType": "uint256",
              "name": "time",
              "type": "uint256"
            }
          ],
          "internalType": "struct DMessage.Message",
          "name": "",
          "type": "tuple"
        }
      ],
      "stateMutability": "view",
      "type": "function"
    }
  ],
  "bytecode": "0x60806040526040518060400160405280600881526020017f444d6573736167650000000000000000000000000000000000000000000000008152506000908051906020019061004f929190610062565b5034801561005c57600080fd5b50610166565b82805461006e90610134565b90600052602060002090601f01602090048101928261009057600085556100d7565b82601f106100a957805160ff19168380011785556100d7565b828001600101855582156100d7579182015b828111156100d65782518255916020019190600101906100bb565b5b5090506100e491906100e8565b5090565b5b808211156101015760008160009055506001016100e9565b5090565b7f4e487b7100000000000000000000000000000000000000000000000000000000600052602260045260246000fd5b6000600282049050600182168061014c57607f821691505b602082108114156101605761015f610105565b5b50919050565b610aa5806101756000396000f3fe608060405234801561001057600080fd5b506004361061004c5760003560e01c806306fdde03146100515780633dbcc8d11461006f578063469c81101461008d57806386f79edb146100a9575b600080fd5b6100596100d9565b604051610066919061058c565b60405180910390f35b610077610167565b60405161008491906105c7565b60405180910390f35b6100a760048036038101906100a2919061072b565b61016d565b005b6100c360048036038101906100be91906107a0565b6102a5565b6040516100d091906108ca565b60405180910390f35b600080546100e69061091b565b80601f01602080910402602001604051908101604052809291908181526020018280546101129061091b565b801561015f5780601f106101345761010080835404028352916020019161015f565b820191906000526020600020905b81548152906001019060200180831161014257829003601f168201915b505050505081565b60015481565b604051806080016040528060015481526020013373ffffffffffffffffffffffffffffffffffffffff168152602001828152602001428152506002600060015481526020019081526020016000206000820151816000015560208201518160010160006101000a81548173ffffffffffffffffffffffffffffffffffffffff021916908373ffffffffffffffffffffffffffffffffffffffff1602179055506040820151816002019080519060200190610228929190610412565b50606082015181600301559050503373ffffffffffffffffffffffffffffffffffffffff167f1f8960ec3ee7087d0552bc042c456f22e713898e21204c04f5885b3942bb079060015483426040516102829392919061094d565b60405180910390a26001600081548092919061029d906109ba565b919050555050565b6102ad610498565b60015482106102f1576040517f08c379a00000000000000000000000000000000000000000000000000000000081526004016102e890610a4f565b60405180910390fd5b60026000838152602001908152602001600020604051806080016040529081600082015481526020016001820160009054906101000a900473ffffffffffffffffffffffffffffffffffffffff1673ffffffffffffffffffffffffffffffffffffffff1673ffffffffffffffffffffffffffffffffffffffff16815260200160028201805461037f9061091b565b80601f01602080910402602001604051908101604052809291908181526020018280546103ab9061091b565b80156103f85780601f106103cd576101008083540402835291602001916103f8565b820191906000526020600020905b8154815290600101906020018083116103db57829003601f168201915b505050505081526020016003820154815250509050919050565b82805461041e9061091b565b90600052602060002090601f0160209004810192826104405760008555610487565b82601f1061045957805160ff1916838001178555610487565b82800160010185558215610487579182015b8281111561048657825182559160200191906001019061046b565b5b50905061049491906104d6565b5090565b604051806080016040528060008152602001600073ffffffffffffffffffffffffffffffffffffffff16815260200160608152602001600081525090565b5b808211156104ef5760008160009055506001016104d7565b5090565b600081519050919050565b600082825260208201905092915050565b60005b8381101561052d578082015181840152602081019050610512565b8381111561053c576000848401525b50505050565b6000601f19601f8301169050919050565b600061055e826104f3565b61056881856104fe565b935061057881856020860161050f565b61058181610542565b840191505092915050565b600060208201905081810360008301526105a68184610553565b905092915050565b6000819050919050565b6105c1816105ae565b82525050565b60006020820190506105dc60008301846105b8565b92915050565b6000604051905090565b600080fd5b600080fd5b600080fd5b600080fd5b7f4e487b7100000000000000000000000000000000000000000000000000000000600052604160045260246000fd5b61063882610542565b810181811067ffffffffffffffff8211171561065757610656610600565b5b80604052505050565b600061066a6105e2565b9050610676828261062f565b919050565b600067ffffffffffffffff82111561069657610695610600565b5b61069f82610542565b9050602081019050919050565b82818337600083830152505050565b60006106ce6106c98461067b565b610660565b9050828152602081018484840111156106ea576106e96105fb565b5b6106f58482856106ac565b509392505050565b600082601f830112610712576107116105f6565b5b81356107228482602086016106bb565b91505092915050565b600060208284031215610741576107406105ec565b5b600082013567ffffffffffffffff81111561075f5761075e6105f1565b5b61076b848285016106fd565b91505092915050565b61077d816105ae565b811461078857600080fd5b50565b60008135905061079a81610774565b92915050565b6000602082840312156107b6576107b56105ec565b5b60006107c48482850161078b565b91505092915050565b6107d6816105ae565b82525050565b600073ffffffffffffffffffffffffffffffffffffffff82169050919050565b6000610807826107dc565b9050919050565b610817816107fc565b82525050565b600082825260208201905092915050565b6000610839826104f3565b610843818561081d565b935061085381856020860161050f565b61085c81610542565b840191505092915050565b600060808301600083015161087f60008601826107cd565b506020830151610892602086018261080e565b50604083015184820360408601526108aa828261082e565b91505060608301516108bf60608601826107cd565b508091505092915050565b600060208201905081810360008301526108e48184610867565b905092915050565b7f4e487b7100000000000000000000000000000000000000000000000000000000600052602260045260246000fd5b6000600282049050600182168061093357607f821691505b60208210811415610947576109466108ec565b5b50919050565b600060608201905061096260008301866105b8565b81810360208301526109748185610553565b905061098360408301846105b8565b949350505050565b7f4e487b7100000000000000000000000000000000000000000000000000000000600052601160045260246000fd5b60006109c5826105ae565b91507fffffffffffffffffffffffffffffffffffffffffffffffffffffffffffffffff8214156109f8576109f761098b565b5b600182019050919050565b7f4d65737361676520646f65736e27742065786973740000000000000000000000600082015250565b6000610a396015836104fe565b9150610a4482610a03565b602082019050919050565b60006020820190508181036000830152610a6881610a2c565b905091905056fea26469706673582212202fa1d972bd337ef73c8b3e2daaa671f9c19f22d0d4c5de718d92ebc7d36635e764736f6c634300080c0033",
  "immutableReferences": {},
  "source": "// SPDX-License-Identifier: MIT\npragma solidity 0.8.12;\n\ncontract DMessage {\n\n    string public name = \"DMessage\";\n\n    //Message Count\n    uint public messageCount;\n\n    //Message\n    struct Message{\n        uint id;\n        address sender;\n        string message;\n        uint time;\n    }\n\n    //All Messages\n    mapping(uint => Message) private messages;\n\n    //Events\n    event MessageSent(\n        uint id,\n        address indexed sender,\n        string message,\n        uint time);\n\n    //Send Message\n    function sendMessage(string memory _message) external {\n        messages[messageCount] = Message(messageCount,msg.sender,_message,block.timestamp);\n\n        emit MessageSent(messageCount,msg.sender,_message,block.timestamp);\n        messageCount++;\n        \n    }\n\n    //Get Message\n    function getMessage(uint _id) external view returns (Message memory) {\n        require(_id < messageCount, \"Message doesn't exist\");\n        return messages[_id];\n    }\n    \n}",
  "sourcePath": "/media/kaamil/New Volume1/work/truffle-dmessage/contracts/DMessage.sol",
  "compiler": {
    "name": "solc",
    "version": "0.8.12+commit.f00d7308.Emscripten.clang"
  },
  "schemaVersion": "3.4.7",
  "updatedAt": "2022-05-25T05:30:50.139Z",
  "devdoc": {
    "kind": "dev",
    "methods": {},
    "version": 1
  },
  "userdoc": {
    "kind": "user",
    "methods": {},
    "version": 1
  }
}